:100000000C94D8060C94F5060C94F5060C94F506A1
:100010000C94F5060C94F5060C94F5060C94F50674
:100020000C94F5060C94F5060C94F5060C94F70662
:100030000C94F5060C94F5060C94F5060C94F50654
:100040000C94F5060C94F5060C94F5060C94F50644
:100050000C94F5060C94F5060C94F5060C94F50634
:100060000C94F5060C94F50600000000000000005A
:100070000000F000000000000000F00C0000008014
:10008000C0C02000000000000000000000000000D0
:100090000000000000000000000000000000000060
:1000A0000000000000000000000000000000000050
:1000B0000000000000000000000000000000000040
:1000C00000000000808003070C9870000000010011
:1000D000000000078F9D1810302020202060604015
:1000E000C0800000000000000000000000000000D0
:1000F0000000000000000000000000000000000000
:1001000000000000000000000000000000000000EF
:100110000000000000181E1101010181C1600000F3
:10012000000000000000000003030000008080C009
:10013000C0C0C0E0703F1F000000000000000000D1
:1001400000000000000000000000000000000000AF
:10015000000000000000000000000000000000009F
:100160000000000000000000000000000006070181
:10017000010008080C0C0C0C0C0C1CF8F000001E04
:10018000FFDF070301010000000000000000000085
:10019000000000000000000000000000000000005F
:1001A000000000000000000000000000000000004F
:1001B000000000000000000000000000000000003F
:1001C0000080E03018000808102020A0E0F07EE356
:1001D000E0F8C04418A1FF1E00000000000000006D
:1001E000000000000000000000000000000000000F
:1001F00000000000000000000000000000000000FF
:1002000000000000000000000000000000000000EE
:100210000000000000070E0C0C0C060603133B390F
:100220002968686F6D606767676767653539391377
:1002300006000000000000000000000000000000B8
:1002400000000000000000000000000000000000AE
:10025000000000000000000000000000000000009E
:10026000000000000000005F00000007000700140D
:100270007F147F14242A7F2A1223130864623649CC
:100280005522500005030000001C224100004122BD
:100290001C00082A1C2A0808083E080800503000E4
:1002A0000008080808080060600000201008040228
:1002B0003E5149453E00427F40004261514946213E
:1002C00041454B311814127F1027454545393C4AAA
:1002D00049493001710905033649494936064949FA
:1002E000291E003636000000563600000008142291
:1002F0004114141414144122140800020151090677
:10030000324979413E7E1111117E7F494949363E7D
:10031000414141227F4141221C7F494949417F0996
:100320000901013E414151327F0808087F00417FA9
:1003300041002040413F017F081422417F4040405E
:10034000407F0204027F7F0408107F3E4141413E0E
:100350007F090909063E4151215E7F091929464658
:100360004949493101017F01013F4040403F1F2081
:1003700040201F7F2018207F631408146303047833
:100380000403615149454300007F414102040810C4
:100390002041417F000004020102044040404040EF
:1003A000000102040020545454787F4844443838F3
:1003B00044444420384444487F3854545418087EF8
:1003C000090102081454543C7F0804047800447D59
:1003D00040002040443D00007F10284400417F4001
:1003E000007C041804787C080404783844444438B9
:1003F0007C14141408081414187C7C08040408489D
:1004000054545420043F4440203C4040207C1C2055
:1004100040201C3C4030403C44281028440C5050A4
:10042000503C4464544C44000836410000007F00B6
:1004300000004136080008082A1C08081C2A080881
:1004400000E0F0380C0C0C0C38F8C000001F7FE006
:1004500080808080E0FF1F00000000010101010199
:100460000000000000101818FCFC00000000000054
:1004700000000000FFFF000000000000000000007E
:10048000010100000000000000081C0C0C0C0C8C8A
:10049000F8F0000000F0F89C8C86868383800000D2
:1004A00000010101010101010101000000081C0C13
:1004B0000C0C0C8CF8F000000080C080818383C796
:1004C000FF7C0000000001010101010100000000AB
:1004D00000000080C07038FCFC000000001C1E1BE7
:1004E000111810FFFF1018000000000000000001AC
:1004F000010000000000F4FC1C0C0C0C0C000000BF
:100500000080C383838383C7FE780000000000015E
:10051000010101010000000000C0F0781C0C0C0C6F
:1005200008000000003FFFC3838383C3FE7C0000FC
:10053000000000010101010100000000000C0C0C92
:100540000C8CCC7C3C0C0000000080F07C0F030085
:100550000000000000000101000000000000000099
:1005600000F0F81C0C0C0C0CF8F0000000F8FF8FE9
:100570000706068FFFF800000000010303030301D4
:100580000100000000F0F81C0C0C0C1CF8E000004E
:100590000001878E8C8C8CEE7F1F00000000010113
:1005A0000101010000000000000000000000000048
:1005B000000000000000000000000000000000003B
:1005C000000000000000000000000000000000002B
:1005D00000000000000000000000008080C0C0C0DB
:1005E000E0E0E0E0E0E0E0E0E0E0E0E0E0E0C0C04B
:1005F000C08080000000000000000000000000003B
:1006000000000000000000000000000000000000EA
:1006100000000000000000000000000000000000DA
:1006200000000000000000000000000000000000CA
:1006300000000000000000000000000000000000BA
:1006400000000000000000000000000000000000AA
:100650000080C0E0F0F8FCFCFEFFFFFFFFFFFFFFA3
:10066000FFFFFFFFFFFFFFFFFFFFFFFFFFFFFFFF9A
:10067000FFFFFFFFFFFEFCFCF8F0E0C08000000081
:10068000000000000000000000000000000000006A
:10069000000000000000000000000000000000005A
:1006A000000000000000000000000000000000004A
:1006B000000000000000000000000000000000003A
:1006C0000000000000000000000000000080F0FCBE
:1006D000FEFFFFFFFFFFFFFFFFFFFFFFFFFFFFFF2B
:1006E000FFFFFFFFFFFFFFFFFFFFFFFFFFFFFFFF1A
:1006F000FFFFFFFFFFFFFFFFFFFFFFFFFFFEFCF01D
:10070000C000000000000000000000000000000029
:1007100000000000000000000000000000000000D9
:1007200000000000000000000000000000000000C9
:1007300000000000000000000000000000000000B9
:10074000000000000000000000000000FCFFFFFFB0
:10075000FFFFFFFFFFFFFFFFFFFFFFFFFFFFFF1F89
:1007600007030101000000000000000103071FFF54
:10077000FFFFFFFFFFFFFFFFFFFFFFFFFFFFFFFF89
:10078000FFFC00000000000000000000000000006E
:100790000000000000000000000000000000000059
:1007A0000000000000000000000000000000000049
:1007B0000000000000000000000000000000000039
:1007C0000000000000000000000000001FFFFFFF0D
:1007D000FFFFFFFFFFFFFFFFFFFFFFFFFFFFFFFC2C
:1007E000F0E0C08080000000000080C0C0F0FCFF8E
:1007F000FFFFFFFFFFFFFFFFFFFFFFFFFFFFFFFF09
:10080000FF3F0000000000000000000000000000AA
:1008100000000000000000000000000000000000D8
:1008200000000000000000000000000000000000C8
:1008300000000000000000000000000000000000B8
:100840000000000000000000000000000001071F81
:100850007FFFFFFFFFFFFFFFFFFFFFFFFFFFFFFF28
:10086000FFFF7F0F0300000000010F3FFFFFFFFFAE
:10087000FFFFFFFFFFFFFFFFFFFFFFFFFF7F1F07E0
:100880000100000000000000000000000000000067
:100890000000000000000000000000000000000058
:1008A0000000000000000000000000000000000048
:1008B0000000000000000000000000000000000038
:1008C0000000000000000000000000000000000028
:1008D00000000103070F1F3F3F7FFFFFFFFFFF7F68
:1008E0000F0300000000000000000000010F3FFFA8
:1008F000FFFFFFFF7F7F3F1F0F0703010000000086
:1009000000000000000000000000000000000000E7
:1009100000000000000000000000000000000000D7
:1009200000000000000000000000000000000000C7
:1009300000000000000000000000000000000000B7
:1009400000000000000000000000000000000000A7
:100950000000000000000000000000000001010095
:100960000000000000000000000000000000000186
:100970000101000000000000000000000000000075
:100980000000000000000000000000000000000067
:100990000000000000000000000000000000000057
:1009A0000000000000000000060000000000000041
:1009B000000F00000F00000F00000F0000000000FB
:1009C0000000000000000000000000000000000027
:1009D0000000000000000700001E00E01F00FF1FD5
:1009E000F8FF03FF1F00FF01000F000000000000E0
:1009F00000000000000000000000000000000000F7
:100A0000000000000E000000C07F00F8FF01FCFFA6
:100A100007FCFF073E800F0E000E0E000E0E000EAC
:100A20001E800FFCFF07FCFF07F8FF01C07F0000DE
:100A300000000E00000070000E38000E38000E1C82
:100A4000000E0E000EFEFF0FFEFF0FFEFF0FFEFF5B
:100A50000F00000E00000E00000E00000E0000004F
:100A60000E00000060000F78800F7CC00F7CE00F4C
:100A70001EF00F0EF80E0E7C0E0E3E0E1E1F0EFE0A
:100A80000F0EFC070EF8030EF0010E0000000E0022
:100A900000003080013880033C80073C800F1E003E
:100AA0000F0E0E0E0E0E0E0E0E0E1E1F0FFEFF0F61
:100AB000FCFB07FCF903F0E0010000000F00000060
:100AC00000F00000F80000FE0080EF00C0E700F03A
:100AD000E1007CE0003EE000FEFF0FFEFF0FFEFFA6
:100AE0000FFEFF0F00E00000E0000E00000000809D
:100AF00001F88703FE8707FE870FFE070F0E030E20
:100B00008E030E8E030E8E070F8EFF070EFF070E4D
:100B1000FE0300FC000000000E000000C07F00F09B
:100B2000FF01F8FF07FCFF073E0E0F0E070E0E0732
:100B30000E0E070E1E0F0F3EFF0F3CFE0738FE0382
:100B400030F8010000000E0000000E00000E000052
:100B50000E00000E000F0EE00F0EF80F0EFE0F8EAF
:100B6000FF00CE0F00FE0300FE00003E00001E004E
:100B7000000000000E000000F0E001F8FB03FCFBA9
:100B800007FEFF0F1E1F0F0E0E0E0E0E0E0E0E0E88
:100B90001E1F0FFEFF0FFCFB07FCFB03F0E0010034
:100BA00000000E000000F08301F88703FC8F07FEB1
:100BB0009F0F1E1E0F0E1C0E0E1C0E0E1C0E1E8EE8
:100BC0000FFCFF07FCFF03F8FF01C07F00000000DF
:100BD000000000000000005F000000070007001494
:100BE0007F147F14242A7F2A122313086462364953
:100BF0005522500005030000001C22410000412244
:100C00001C00082A1C2A0808083E0808005030006A
:100C100000080808080800606000002010080402AE
:100C20003E5149453E00427F4000426151494621C4
:100C300041454B311814127F1027454545393C4A30
:100C40004949300171090503364949493606494980
:100C5000291E003636000000563600000008142217
:100C600041141414141441221408000201510906FD
:100C7000324979413E7E1111117E7F494949363E04
:100C8000414141227F4141221C7F494949417F091D
:100C90000901013E414151327F0808087F00417F30
:100CA00041002040413F017F081422417F404040E5
:100CB000407F0204027F7F0408107F3E4141413E95
:100CC0007F090909063E4151215E7F0919294646DF
:100CD0004949493101017F01013F4040403F1F2008
:100CE00040201F7F2018207F6314081463030478BA
:100CF0000403615149454300007F4141020408104B
:100D00002041417F00000402010204404040404075
:100D1000000102040020545454787F484444383879
:100D200044444420384444487F3854545418087E7E
:100D3000090102081454543C7F0804047800447DDF
:100D400040002040443D00007F10284400417F4087
:100D5000007C041804787C0804047838444444383F
:100D60007C14141408081414187C7C080404084823
:100D700054545420043F4440203C4040207C1C20DC
:100D800040201C3C4030403C44281028440C50502B
:100D9000503C4464544C44000836410000007F003D
:100DA00000004136080008082A1C08081C2A080808
:100DB00011241FBECFEFD8E0DEBFCDBF11E0A0E011
:100DC000B1E0E4E0F5E302C005900D92A636B1076C
:100DD000D9F723E0A6E6B1E001C01D92AA39B20717
:100DE000E1F70E9426140C94801A0C9400001F92C4
:100DF0001FB61F9211242F938F939F9390918A0176
:100E00009F5F90938A0180918D01882319F0815012
:100E100080938D01809180018F5F8093800120916C
:100E2000800180919201281770F081E08093850104
:100E30001092800180918701811145C080918201CB
:100E40008F5F80938201809181018F5F8093810108
:100E50002091810180918B01281778F080918B017E
:100E6000882359F0109281012091910180917C0199
:100E7000213069F58F5F80937C019A3039F480913D
:100E80008F0110928A018F5F80938F0180918F0173
:100E90008A3039F48091900110928F018F5F809396
:100EA0009001809190018C3339F4109290018091DF
:100EB0008E018F5F80938E019F918F912F911F9054
:100EC0001FBE1F901895809182018150BACF81502A
:100ED000D2CF0F93CF93DF93C82FD62F80910001ED
:100EE000813059F501E025E044E160E08AE00E94AC
:100EF000740D80918701813001F52091880130E0E7
:100F0000C9010596D8171906C1F4D0E04AE050E0AF
:100F1000421B530B4C175D0784F4235E3F4F2C1785
:100F20003D075CF0109287011092000100E025E07F
:100F300044E160E08AE00E94740DDF91CF910F914F
:100F40000895843508F083E5443508F043E56033BF
:100F500008F06FE2203308F02FE2E0919103F09166
:100F600092039081891708F480838281841708F4A2
:100F700042838181681708F461838381821708F4B2
:100F800023830895E0919103F091920383E5808398
:100F900012828FE28183138208950C94C207E0913C
:100FA0009103F0919203108283E5828311828FE294
:100FB00083830895E0918F03F091900388EF91E08F
:100FC000DF019C011D9221503040E1F72FE243E503
:100FD00060E080E00E94A1070C947F08E0918F03FD
:100FE000F091900388EF91E0DF019C011D92215068
:100FF0003040E1F72FE243E560E080E00C94A10788
:101000009093900380938F03709392036093910366
:101010000895089524E530E080E044E5E0918F03F1
:10102000F09190038530B9F0D901A455B109AE0F04
:10103000BF1FE20FF31F94E501900D929A95E1F71F
:101040008F5F2C5A3F4F863049F72FE243E560E02F
:1010500080E00C94A107EC55FE4FDF01942F1D9208
:101060009A95E9F7EDCF209A239A209A259A209A0B
:10107000219A579A289A80E58CBD1DBC0E94CD0804
:1010800063E971E087E991E00E9400080C94DA07B7
:1010900028988EBD0DB407FEFDCF289A0895289894
:1010A0005F9880EA9FE00197F1F75F9A289A089588
:1010B00029980C944808299A0C944808CF93C82F73
:1010C00081E20E9458088C2F80680E94580880E2B4
:1010D0000E9458088CE0CF910C9458080E94DA07BF
:1010E00084E20C94580880E20C945808863008F08A
:1010F00085E080640C94580880680C945808EF923E
:10110000FF920F931F93CF93DF93F12CE12C08E014
:1011100010E0C0E0E0919103F0919203818180178B
:10112000110684F0CF5F085F1F4F84E5E80EF11CC5
:10113000C63081F7DF91CF911F910F91FF90EF9013
:101140000C94C2072381C80108972817190694F345
:101150008C2F80640E945808E0919103F0919203D3
:10116000808180680E945808E0919103F091920379
:10117000D081E0919103F091920382818D1790F2DA
:10118000E0918F03F0919003EE0DFF1DED0FF11D27
:1011900080810E945B08DF5FECCF0E944F0881E2F4
:1011A0000E94580882E10E9458088CEB0E9458085F
:1011B00080E20E9458088CE00C945808EF92FF924D
:1011C0000F931F93CF93DF93F82E162FC42FD22F98
:1011D000E02E2330A0F001E00E94740D2EEF2D0FC1
:1011E000C250CE9DC00111246FEF70E00E94C01666
:1011F000462F61E0610F81E08F0D0E942A0DDF9183
:10120000CF911F910F91FF90EF9008950F93382F7A
:10121000E62F233068F0409FC00111246FEF70E08B
:101220000E94C016462F01E06E2F832F0E942A0DC8
:101230000F910895EF92FF920F931F93CF93DF9337
:10124000E82ED62FF42EC22F102F01E00E94740D2D
:10125000C25010951C9FC00111246FEF70E00E94D6
:10126000C0162C2F261B4EEF4F0DDF5F6D0F81E058
:101270008E0D0E942A0DDF91CF911F910F91FF904B
:10128000EF9008950F93E82F362F22500095029F7C
:10129000C00111246FEF70E00E94C016261B630F7F
:1012A00001E08E2F0E942A0D0F9108954F925F92B8
:1012B0006F927F928F929F92AF92BF92CF92DF9266
:1012C000EF92FF920F931F93CF93DF93982ED62F19
:1012D000C42F722E602E01E00E94740DEE24E39460
:1012E000ED0EFE2C072D10E0680181E0C81AD10830
:1012F0008C2F8150990B5C0155245394590C8F2DE0
:101300008D1B8C151D040CF44DC098012350310920
:10131000629EC001639E900D11246FEF70E00E94E9
:10132000C016025011096017110614F06DEF670D19
:10133000D70D1D2F161BC250C90D2EEF210F6EEFBA
:101340006D0F01E04C2F8C2F0E94BD0C6DEF610FD3
:1013500000E02E2D4C2F8C2F0E94BD0CDF91CF91E1
:101360001F910F91FF90EF90DF90CF90BF90AF90C3
:101370009F908F907F906F905F904F900C947F081C
:10138000482C490C6F2D852D880D0E947A0C482F12
:101390006F2D842D0E94540C83948A141B0484F3B3
:1013A000F394ADCF88248394F8CF8F929F92AF921D
:1013B000BF92CF92DF92EF92FF920F93CF93B82E0E
:1013C000A62E942E822EC02FE11002C0EE24E394AC
:1013D000F12C0C2F282D492D6A2D8B2D0E9456099A
:1013E000F394EF10F6CFC114D10481F1B60190E06F
:1013F00080E00E949C154B015C0120E030E04AE750
:1014000055E40E942B166B017C0120E030E040E89F
:101410005FE30E94681587FD32C020E03FEF4FE791
:1014200057E4C701B6010E942616181604F520E0FD
:1014300030E040E251E4C501B4010E942B160E9445
:101440006D1520E931E06115710559F4CF910F91C7
:10145000FF90EF90DF90CF90BF90AF909F908F90D4
:101460000895C9010197F1F761507109ECCFC701E7
:10147000B6010E946D15CB010197F1F7E7CF61E04E
:1014800070E0F9CF0F93E3E9F3E091838083628307
:1014900043832483058381E086830F910895EF922F
:1014A0000F93E3E9F3E09183808362834383248392
:1014B0000583E6820F91EF9008952F923F924F920D
:1014C0005F926F927F928F929F92AF92BF92CF92D4
:1014D000DF92EF92FF920F931F93CF93DF93CDB7DD
:1014E000DEB729970FB6F894DEBF0FBECDBF482EEA
:1014F000688720919703421720F080919803841702
:1015000008F44EE280919903882309F49EC081304B
:1015100009F0F1C080919603382F369536953695AF
:101520003987877011F03F5F39878091950359851E
:10153000589F802D11248F5F421B550B849F800183
:10154000859F100D1124E0919303F0919403E00F17
:10155000F11F54909985892F90E09C838B838F0194
:101560000F5F1F4FC42CD12CF885EF2FF0E0FF83C5
:10157000EE83CA828C2D8419851508F04CC0580161
:10158000912C812C1982ABC0809197039301281B69
:101590003109529E8001539E100D11243981832EF2
:1015A000912C080D191DE0919303F0919403E00F25
:1015B000F11FE491F12CE12C8C0C9D1C0E2F10E0FE
:1015C00044E5841691040CF02BC1C5018E0D9F1DBE
:1015D000C09708F025C168856E0DC8010E2C02C0A9
:1015E000959587950A94E2F741E080FF40E0842DCD
:1015F0000E94540C5FEFE51AF50A88E0E816F10442
:10160000F9F699819F5F9983439450909503F981EE
:10161000F51508F4B9CF852D29960FB6F894DEBFDD
:101620000FBECDBFDF91CF911F910F91FF90EF9033
:10163000DF90CF90BF90AF909F908F907F906F90F2
:101640005F904F903F902F9008951982642E712CD7
:10165000C42CD12CE885AE2EB12CD7CFF5016490E7
:101660002E803F80280C391CF885F80DFD83F12C65
:10167000E12C712C24E5C216D1040CF0D1C09101EB
:101680002E0D3F1D2033310508F0CAC090919603FE
:1016900094012E0D3F1D9217130689F084F06D8181
:1016A0006E0DA3010E2C02C0559547950A94E2F7E2
:1016B000CA0141E080FF40E08A810E94540C5FEF44
:1016C000E51AF50A88E0E816F104A1F699819F5F12
:1016D0009983E8E08E0E911CFFEFAF1ABF0A2985AF
:1016E00039812313BBCF4B815C81040F151F5FEF42
:1016F000C51AD50A3ECF823009F092C08091960378
:1017000086958695869591E0980F9983909195039B
:10171000421B550BE9819E9F202D1124249F3001EF
:10172000259F700C11242091930330919403620E35
:10173000731E592E492F4150550B9A01492F4519B7
:10174000F901E41BF1098E9FE02D1124E60DF72D20
:10175000F11D4081411103C05A945110EFCF98857B
:10176000892F90E09C838B83912C812CB12CA12C10
:101770002B812A83E42CF12CD12CC12C3EC08091EA
:1017800095038A9DF0018B9DF00D1124EC0DFD1D3C
:10179000E60DF71DE49110E000E02E2E312CE4E57B
:1017A000EE16F104E8F52B813C81200F311F203328
:1017B0003105B4F5909196039401200F311F9217D3
:1017C000130681F07CF06A81600F9101002E02C047
:1017D000359527950A94E2F741E020FF40E08E2DF1
:1017E0000E94540C0F5F1F4F08301105C1F63FEFE8
:1017F000C31AD30A4FEFE41AF40AC51408F4BFCF92
:101800005FEFA51AB50A88E0880E911CEB81FC8178
:101810003896FC83EB83F981AF1608F4A9CFFBCE91
:10182000512CF9CE0F931F93CF93DF93182F062FD0
:10183000209196038FE290E0821B9109EA016817DC
:10184000190661F05CF0DF91CF911F910F9108951F
:10185000602F812F0E945D0A8F5F180F49914111FF
:10186000F7CFF1CF0F931F93CF93DF93182F062F4E
:10187000209196038FE290E0821B91096817190668
:1018800009F06CF4EA01FE0144912196442339F0F9
:10189000602F812F0E945D0A8F5F180FF4CFDF91B8
:1018A000CF911F910F910895843518F5603308F595
:1018B000E82FF0E0962F96959695969524E5929FC1
:1018C000E00DF11D1124E956FE4F9081562F5770FF
:1018D00021E030E001C0220F5A95EAF7442331F0AD
:1018E000292B2083262F482F0C94A10720952923EC
:1018F000F8CF08958435C8F46033B8F4962F9695E0
:101900009695969544E5949F9001112429563E4F53
:10191000280F311DF901808190E0677002C0959514
:1019200087956A95E2F78170089580E00895CF93D6
:10193000DF93C82FD62F8435E8F46033D8F4262FF0
:10194000482F0E94A1078D2F869586958695EC2FAE
:10195000F0E094E5899FE00DF11D1124E956FE4F5A
:10196000D77021E030E001C0220FDA95EAF78081DC
:1019700082278083DF91CF9108958F929F92AF92BB
:10198000BF92CF92DF92EF92FF920F931F93CF936C
:10199000DF93C82FD62F142FF22E261B330B69018D
:1019A00037FF03C0D194C194D108812F8C1B990BB0
:1019B0005C0197FF03C0B194A194B108AC14BD04BD
:1019C00034F4812F1F2DF82E8C2FCD2FD82F1C17DC
:1019D00030F48D2FDF2DF82E8C2FC12F182F2F2DA7
:1019E000412F6D2F8C2F0E94A107812E8C1A2F2D35
:1019F0002D1B330BC90137FF03C0919581959109C8
:101A0000E82E982C9694DF1510F1FF24FA941C17F9
:101A100068F4DF91CF911F910F91FF90EF90DF90CD
:101A2000CF90BF90AF909F908F900895402F6C2FD4
:101A30008D2FAC14BD0414F06D2F8C2F0E94540C0C
:101A40009E1897FE02C0DF0D980CCF5FE0CFFF24F9
:101A5000F394DDCF5F926F927F928F929F92AF92BD
:101A6000BF92CF92DF92EF92FF920F931F93CF938B
:101A7000DF93182F562EC42FD22FE82EF12C5701AA
:101A8000A40EB11C662E712C4301820E911CEA1427
:101A9000FB04CCF02FEF2D0F250D4FEF4C0F410F16
:101AA000652D812FDF91CF911F910F91FF90EF90C6
:101AB000DF90CF90BF90AF909F908F907F906F906E
:101AC0005F900C94A1076301C814D90424F08FEF30
:101AD000E81AF80ADCCF402F6C2D8E2D0E94540C92
:101AE0008FEFC81AD80AF0CF8F929F92AF92BF9211
:101AF000DF92EF92FF920F931F93CF93DF93D82F34
:101B0000162FC42FA22EE82EF12CDD24DA94D20E4B
:101B1000D60E4701840E911CE814F904DCF0E12E86
:101B2000F12CC150CD0FAE0CBF2CB11CEA14FB043C
:101B3000FCF02D2D4C2F612F8D2FDF91CF911F9118
:101B40000F91FF90EF90DF90BF90AF909F908F909C
:101B50000C94A107402F612F8E2D0E94540C402F12
:101B60006D2D8E2D0E94540C8FEFE81AF80AD4CFF9
:101B7000402F6E2D8D2F0E94540C402F6E2D8C2FD8
:101B80000E94540C8FEFE81AF80AD0CF6F927F9220
:101B90008F929F92AF92BF92CF92DF92EF92FF927D
:101BA0000F931F93CF93DF93182FF62EC42FD22FAE
:101BB000011101C001E0E11002C0EE24E394A12E66
:101BC000B12C45018C0E911C66246A946D0EEF0CAD
:101BD000A814B9040CF1AF2CB12C45018D0E911C49
:101BE000C150010FA814B90464F12FEF2D0F2F0D70
:101BF0004C2F410F6F2D812FDF91CF911F910F91AE
:101C0000FF90EF90DF90CF90BF90AF909F908F901C
:101C10007F906F900C94A107762C7F0CDF2C4C2DBD
:101C20006D2D8A2D0E94540C4C2D672D8A2D0E94FB
:101C3000540CD3947A94DE10F2CF8FEFA81AB80A1E
:101C4000C7CFDC2ED10EE12E4C2D6A2D8E2D0E9499
:101C5000540C4C2D6A2D8D2D0E94540CE394DA9473
:101C60000E11F2CF8FEFA81AB80ABCCFEF92FF92F5
:101C70000F931F93CF93DF93E82E162FC42FD22FED
:101C80000E94740DD10FCE0D2D2F4C2F6D2F81E0A2
:101C90008E0D0E94BD0C61E0610F2D2F4C2F8C2FFB
:101CA0000E94BD0CDF91CF911F910F91FF90EF909B
:101CB0000895AF92BF92CF92DF92EF92FF920F936F
:101CC0001F93CF93DF93E82ED62EF22E81E0C82EFD
:101CD000C41AB42EB194BB0CC42FA42EA60E142F7C
:101CE0001E0D062F041BDE2DD41B2A2D412F602F25
:101CF0008D2F0E94A1074F2D6A2D8E2D0E94540C0E
:101D00004F2D602F8E2D0E94540C4F2D6D2D812F45
:101D10000E94540C4F2D6D2D8D2F0E94540CD0E03D
:101D2000DC175CF0DF91CF911F910F91FF90EF9046
:101D3000DF90CF90BF90AF900895C7FC04C0C15012
:101D4000B394B394CB0CDF5F8D2F880F8F5FC80ED9
:101D5000AE2CAD0E4F2D1C2F1D0D612F8A2D0E9414
:101D6000540C0E2D0D1B4F2D612F802F0E94540CF3
:101D70004F2D1D2D1C1B612F8A2D0E94540C4F2DA1
:101D8000612F802F0E94540C1D2D1D0F4F2D612F90
:101D90000C2F0E0D802F0E94540C4F2D612F1E2DE5
:101DA0001C1B812F0E94540CAD2CAD1A4F2D6A2D97
:101DB000802F0E94540C4F2D6A2D812F0E94540CAD
:101DC000AFCF4F925F926F927F928F929F92AF921E
:101DD000BF92CF92DF92EF92FF920F931F93CF9318
:101DE000DF93F82E062F822ED1E0D41B942E9194EF
:101DF000990CC42F242F260F480F6C1B8C1B0E949C
:101E0000A10710E0CC2ED12C5801AC18BD08C00E93
:101E1000D11ECA14DB04D4F4662463946F0C7724B7
:101E20007A947F0CE12CEC16D4F0DF91CF911F91C6
:101E30000F91FF90EF90DF90CF90BF90AF909F9069
:101E40008F907F906F905F904F900895482D6A2DEE
:101E50008F2D0E94540C8FEFA81AB80ADACFD7FD45
:101E600004C0C15093949394D90DE3948E2D880FA0
:101E70008F5FD80FAC2E0C2E000CBB086801CA185F
:101E8000DB08A00EB11EAC14BD049CF4AE2C0E2CCD
:101E9000000CBB086801CA18DB08A00EB11E5C2E3E
:101EA0005F0C4F2C4C1AAC14BD048CF463947A94E0
:101EB000BACF482D6C2D862D0E94540C482D6C2DC8
:101EC000872D0E94540C8FEFC81AD80ADCCF482DFA
:101ED0006C2D852D0E94540C482D6C2D842D0E9454
:101EE000540C8FEFC81AD80ADECFCF92DF92EF9250
:101EF000FF921F93CF93DF93162FC82F840F99273C
:101F0000991F7C01862F820F9927991F6C01CE158E
:101F10001F0494F0DF91CF911F91FF90EF90DF901D
:101F2000CF9008956D2F8C2F0E94970CDF5FDC15EA
:101F30001D04C4F3CF5FEBCFD12FF9CF48EF51E0B1
:101F4000BC0180918F03909190030E9444170C94E0
:101F5000CF076F927F928F929F92AF92BF92CF9254
:101F6000DF92EF92FF920F931F93CF93DF9304E5DD
:101F700010E080E3E82EF12C92E3C92ED12C20E46E
:101F8000A22E2FE1B22E30EA832E3FE0932E0E9444
:101F9000DA070E943417B8010E94C016782E0E94FA
:101FA0003417B7010E94C016682E0E943417B6017C
:101FB0000E94C016D82FC0E021E04C2F662D872D3F
:101FC0000E94E10E0E947F08C5010197F1F7CF5FE3
:101FD000DC1790F7C0E020E04C2F662D872D0E9483
:101FE000E10E0E947F08C4010197F1F7CF5FDC1773
:101FF00090F780917A01882351F210927A01DF9153
:10200000CF911F910F91FF90EF90DF90CF90BF90F5
:10201000AF909F908F907F906F900895CF92DF92B6
:10202000EF92FF920F931F93CF93DF93CDB7DEB75D
:1020300028970FB6F894DEBF0FBECDBF1A82198263
:10204000FE01339686E0DF011D928A95E9F710E0E4
:1020500085E0C82E81E0D82ECE0101967C010E9439
:10206000EE0709E32EE245E16FE088EA99E00E947D
:10207000420A1F921F93DF92CF92FF92EF920E942B
:102080004D17A70160E080E00E94120C012F000FA5
:10209000000F26E04EE166E28AE00E94DE08012F92
:1020A000000F2EE148E060E086E40E941A090E94D9
:1020B0007F081F5F80917A010F900F900F900F9013
:1020C0000F900F90882359F210927A0128960FB63C
:1020D000F894DEBF0FBECDBFDF91CF911F910F915E
:1020E000FF90EF90DF90CF9008958F929F92AF92E4
:1020F000BF92CF92DF92EF920F93CF93DF93CDB742
:10210000DEB728970FB6F894DEBF0FBECDBF1A8298
:102110001982FE01339686E0DF011D928A95E9F768
:10212000D12CC12C95E0892E91E0992ECE010196FB
:102130005C010E94EE0782E0E82E09E320E343E120
:102140006CE080E494E00E944F0ADF92CF929F926D
:102150008F92BF92AF920E944D17A50160E080E080
:102160000E94120C0E947F089FEFC91AD90A809121
:102170007A010F900F900F900F900F900F9088237F
:10218000C1F210927A0128960FB6F894DEBF0FBE06
:10219000CDBFDF91CF910F91EF90DF90CF90BF90A7
:1021A000AF909F908F9008950F931F93CF93DF93DD
:1021B00009E32EE245E16FE088EA99E00E94420AD5
:1021C00080919603CEE2C81B00E911E0D0E0DC1359
:1021D0001AC0DC2FDD23D1F380917A01811117C061
:1021E0000E94EE074CE051E06D2F80E00E94120C3F
:1021F0000E947F0880E293E0F8013197F1F70197A0
:10220000D9F7D150E7CF80917A01882339F0109225
:102210007A01DF91CF911F910F9108950E94EE07EF
:1022200048E051E06D2F80E00E94120C0E947F0870
:1022300080E293E0F8013197F1F70197D9F7DF5F7A
:10224000C6CFCF92DF92EF92FF920F931F93CF935F
:10225000DF93CDB7DEB72F970FB6F894DEBF0FBE72
:10226000CDBF0FE720E247E065E080ED9BE00E94F4
:10227000A51210E27E018FE0E80EF11C80E9C82E65
:10228000DD24D394FE013196CF0111931F5F17FD1A
:1022900010E2EE16FF06C9F71F860E948813809190
:1022A0007A01882389F010927A012F960FB6F8945C
:1022B000DEBF0FBECDBFDF91CF911F910F91FF9079
:1022C000EF90DF90CF90089580E197E2F60131978B
:1022D000F1F70197D9F7D6CF0F930FE720E247E048
:1022E00065E080ED9BE00E94A5120E94EE0740E1B0
:1022F00051E060E080E00E9416130E947F08809108
:102300007A018823E1F310927A010F910895CF9218
:10231000EF920F93CF93DF930FE720E247E065E062
:1023200080ED9BE00E94A5120E94EE074DE151E076
:1023300060E080E00E9416130E947F0880ED97E025
:1023400020E931E0F9013197F1F70197D9F7C0E9B8
:10235000D1E00E94DA0701E022E344E660E080E099
:102360000E94740D4CE251E069E080E00E94161377
:102370000E947F0888E893E1FE013197F1F7019709
:10238000D9F780917A01882341F010927A01DF9188
:10239000CF910F91EF90CF9008950E94DA074BE311
:1023A00051E069E080E00E9416130E947F08CC246F
:1023B000C39426E0E22E03E02EE140E565E085E0EF
:1023C0000E94C60D0E947F0888E893E1FE013197C4
:1023D000F1F70197D9F780917A018111D6CFCC24FA
:1023E000C39492E0E92E02E024E144E160E080E061
:1023F0000E94C60D0E947F0888E893E1FE01319794
:10240000F1F70197D9F780917A018111BECFCC24E1
:10241000C39485E0E82E05E024E144E16AE084E627
:102420000E94C60D0E947F0888E893E1FE01319763
:10243000F1F70197D9F780917A018111A6CF0E9417
:10244000DA0740E551E069E080E00E94161301E000
:102450002EE14DE260E080E00E94360E0E947F088F
:1024600088E893E1FE013197F1F70197D9F7809160
:102470007A0181118ACF01E02EE14EE165E08FE51E
:102480000E94360E0E947F0888E893E1FE01319792
:10249000F1F70197D9F780917A01882309F459CF90
:1024A00074CF0F93CF93DF930E94DA070E947F08C7
:1024B000C0E00C2F22E342E360E080E00E94560976
:1024C0002EE142E360E08CE30E94560924E14CE3F4
:1024D00063E28CE30E94560980917A01882331F0EF
:1024E00010927A01DF91CF910F910895CC5EC430A4
:1024F00001F7CFEF0C2F22E342E360E080E00E947F
:102500005609DC2FD0950D2F2EE142E360E08CE3DD
:102510000E94560924E14CE363E28CE30E945609D1
:1025200080917A018111DCCFC451CB3F19F7C0CF24
:1025300088EA95E00E949E0F0E947F0880917A01B0
:102540008823E1F310927A0108950F93E3E9F3E011
:1025500091838083628343832483058316820F9152
:1025600008951F93CF93DF93D82F162FC42F209158
:1025700096032830B0F580919703481720F080919A
:102580009803841708F4CEE2622F70E06F5F7F4FEC
:1025900080E390E00E94C0161617170614F54091CC
:1025A00095036D2F640F7727771F64357105CCF481
:1025B00081E0820F282F189F200D11244D0F622FCC
:1025C000681B8D2F0E94A10784E5189FB00111247C
:1025D00080E04C2F50E0A82FAD0F90919503891704
:1025E00020F0DF91CF911F91089520919703FA0178
:1025F000E21BF1099F01929FF001939FF00D1124BE
:102600009F01280F311DE0919303F0919403E20F95
:10261000F31FE49120918F0330919003260F371F11
:10262000A20FB32FB11DEC938F5FD5CFEF92FF9226
:102630000F931F93CF93DF93C82FD62F80919603CC
:10264000883030F58A0180E3E82EF12CF8014191C1
:102650008F014423E9F06D2F8C2F0E94B1128091DD
:10266000950391E0980FC90F2C2F280F3327331FA4
:102670002435310514F0DF5FC0E06091960370E00F
:102680006F5F7F4FC7010E94C016D6171706F4F27E
:10269000DF91CF911F910F91FF90EF900895EF92EE
:1026A000FF920F931F93CF93DF93182F062F8091E4
:1026B0009603883030F5EA0180E3E82EF12CFE0124
:1026C00044914423F1F0602F812F0E94B112809138
:1026D000950391E0980F190F212F280F3327331FEF
:1026E0002435310514F00F5F10E0219660919603B8
:1026F00070E06F5F7F4FC7010E94C0160617170674
:10270000F4F2DF91CF911F910F91FF90EF90089518
:10271000CF93DF93EC010E940A08AE0165E080E0F0
:102720000E941613DF91CF910C947F08CF93DF9313
:10273000EC010E940A08AE0165E080E00E944F13A0
:10274000DF91CF910C947F08682F660F660F660F9C
:1027500028E043E580E00C94750FBF92CF92DF92A2
:10276000EF92FF920F931F93CF93DF93D82EC62E35
:102770002FE2261708F460C0809195038D0D9927EC
:10278000991F843591050CF057C0809196038830CD
:1027900008F052C08091990381114EC08091970337
:1027A000481720F080919803841708F44EE2F12C2A
:1027B000C42FD0E0BF2CBD0C40919503F41688F0D7
:1027C000209196032C0D4D0D6C2D8D2DDF91CF9109
:1027D0001F910F91FF90EF90DF90CF90BF900C94DE
:1027E000A107809197039E01281B3109429F800118
:1027F000439F100D11240F0D111DE0919303F091D3
:102800009403E00FF11FE491E12C0E2F10E0809172
:102810009603E81610F0F394CDCFA8010E2C02C059
:10282000559547950A94E2F741706E2D6C0D8B2DEE
:102830000E94540CE394EBCFDF91CF911F910F9145
:10284000FF90EF90DF90CF90BF900895229A2A9A40
:102850003B9A439A8AB18B798AB98BB184668BB9DA
:102860008CE990E0909389008093880080918100AA
:1028700088608093810080916F00826080936F00F8
:102880008091810085608093810078940E94330854
:102890000E94DA070E947F0880E180937E0184E134
:1028A00080938201C8E0C0937B011092870110924F
:1028B00091011092840183E08093920110928B0128
:1028C000109280018EE280938C0180917B01809335
:1028D0007F0180917B01805F8093890181E18093FA
:1028E0007C0184E08093880181E08093850180935E
:1028F0007D010FE720E247E065E080E692E00E947C
:10290000A5120E94EE07C0938601D2E0C1E016E056
:102910006091820180917C010E94690789B1807277
:1029200090918D01892B30917E01811114C0D0933B
:102930008D0180917B01432F480F5527551F44354A
:10294000510529F080917B018F5F80937B0110926C
:102950008401C0937D0189B1807490918D01892B90
:1029600079F4D0938D0180917B01882329F08091A7
:102970007B01815080937B01C0938401C0937D01D2
:1029800020917B0120937F0190917B01930F909385
:10299000890180918201843011F410928701309175
:1029A000820180917C0140918801682F70E0A42F02
:1029B000B0E0FD01E60FF71F3A32B1F430E02E1718
:1029C0003F0794F46A1B7B0B9617170669F064F0B7
:1029D000C0938701D9011496AE17BF070CF461C0EC
:1029E00010938B0110929101841302C0C093910146
:1029F000E435F10511F41092910190918501913027
:102A000029F090917D01913009F082CF909185015C
:102A10009130F1F4109285019091870160918201CB
:102A200091114CC0615020E00E94590E60918201CA
:102A300021E04091880180917C010E94590E6091B3
:102A4000820121E04091880180917C010E94590E11
:102A500080917D01813011F510927D01809184017A
:102A600060918C0181112DC080917B0100E022E0FA
:102A700040E181500E94740D80917B0101E022E0D1
:102A800040E160918C010E94740D80917B0101E016
:102A900022E040E160918C010E94740D0E947F0849
:102AA00037CF265F3F4F261737072CF410938B0143
:102AB000C093910199CF10928B0196CF6F5F20E068
:102AC000BCCF80917B0100E022E040E18F5FDBCF53
:102AD0000E94D91508F481E008950E94051688F037
:102AE0009F5798F0B92F9927B751B0F0E1F0660FD2
:102AF000771F881F991F1AF0BA95C9F714C0B13013
:102B000091F00E941F16B1E008950C941F16672FD4
:102B1000782F8827B85F39F0B93FCCF38695779541
:102B20006795B395D9F73EF490958095709561952A
:102B30007F4F8F4F9F4F0895E89409C097FB3EF455
:102B400090958095709561957F4F8F4F9F4F9923FA
:102B5000A9F0F92F96E9BB279395F6958795779578
:102B60006795B795F111F8CFFAF4BB0F11F460FF38
:102B70001BC06F5F7F4F8F4F9F4F16C0882311F090
:102B800096E911C0772321F09EE8872F762F05C0A4
:102B9000662371F096E8862F70E060E02AF09A953F
:102BA000660F771F881FDAF7880F9695879597F934
:102BB0000895990F0008550FAA0BE0E8FEEF1616CE
:102BC0001706E807F907C0F012161306E407F50721
:102BD00098F0621B730B840B950B39F40A2661F095
:102BE000232B242B252B21F408950A2609F4A14038
:102BF000A6958FEF811D811D089557FD9058440FB4
:102C0000551F59F05F3F71F04795880F97FB991F4B
:102C100061F09F3F79F08795089512161306140608
:102C2000551FF2CF4695F1DF08C016161706180695
:102C3000991FF1CF86957105610508940895E89470
:102C4000BB2766277727CB0197F908950E94D915EE
:102C500008F48FEF08950E943E160C94AF160E9460
:102C6000A11638F00E94A81620F0952311F00C94BC
:102C700098160C949E1611240C9420160E94FD1593
:102C800070F3959FC1F3950F50E0551F629FF001BF
:102C9000729FBB27F00DB11D639FAA27F00DB11DD8
:102CA000AA1F649F6627B00DA11D661F829F222761
:102CB000B00DA11D621F739FB00DA11D621F839FE8
:102CC000A00D611D221F749F3327A00D611D231FBE
:102CD000849F600D211D822F762F6A2F11249F570C
:102CE00050409AF0F1F088234AF0EE0FFF1FBB1F0F
:102CF000661F771F881F91505040A9F79E3F5105CE
:102D000080F00C9498160C9420165F3FE4F3983EE4
:102D1000D4F3869577956795B795F795E7959F5F77
:102D2000C1F7FE2B880F911D9695879597F9089509
:102D300097F99F6780E870E060E008959FEF80EC6E
:102D4000089500240A941616170618060906089511
:102D500000240A9412161306140605060895092E77
:102D60000394000C11F4882352F0BB0F40F4BF2BE6
:102D700011F460FF04C06F5F7F4F8F4F9F4F089526
:102D800097FB072E16F4009407D077FD09D00E9418
:102D9000D41607FC05D03EF4909581959F4F089579
:102DA000709561957F4F0895AA1BBB1B51E107C029
:102DB000AA1FBB1FA617B70710F0A61BB70B881FCB
:102DC000991F5A95A9F780959095BC01CD0108955A
:102DD0008F929F92AF92BF92CF92DF92EF92FF922B
:102DE000CF93DF93EC01688179818A819B816115A2
:102DF00071058105910521F464E279ED8BE597E099
:102E00002DE133EF41E050E00E94E61949015A01FB
:102E10009B01AC01A7EAB1E40E94051A6B017C0199
:102E2000ACEEB4EFA50194010E94131ADC01CB01B2
:102E30008C0D9D1DAE1DBF1DB7FF03C00197A109DD
:102E4000B04888839983AA83BB839F77DF91CF9112
:102E5000FF90EF90DF90CF90BF90AF909F908F90BA
:102E600008950E94E816089581E091E00E94E81616
:102E70000895A0E0B0E08093010190930201A09337
:102E80000301B09304010895FB01DC0102C0059029
:102E90000D9241505040D8F70895AEE0B0E0E3E520
:102EA000F7E10C94261A0D891E8986E08C831A831B
:102EB00009838FEF9FE79E838D83AE01475E5F4F4F
:102EC0006F89788DCE0101960E946F17EF81F8858A
:102ED000E00FF11F10822E96E4E00C94421AACE051
:102EE000B0E0E5E7F7E10C94181A6C017B018A0168
:102EF000FC0117821682838181FFBEC1CE0101963B
:102F00004C01F6019381F70193FD859193FF819127
:102F10007F01882309F4ACC1853239F493FD859192
:102F200093FF81917F01853229F4B60190E00E94E0
:102F30005819E7CF512C312C20E02032A0F48B32ED
:102F400069F030F4803259F0833269F420612CC08A
:102F50008D3239F0803339F4216026C0226024603C
:102F600023C0286021C027FD27C030ED380F3A303C
:102F700078F426FF06C0FAE05F9E300D1124532E30
:102F800013C08AE0389E300D1124332E20620CC00D
:102F90008E3221F426FD6CC1206406C08C3611F4FB
:102FA000206802C0883641F4F70193FD859193FFB4
:102FB00081917F018111C1CF982F9F7D95549330CE
:102FC00028F40C5F1F4F9FE399830DC0833631F0C7
:102FD000833771F0833509F05BC022C0F80180812E
:102FE00089830E5F1F4F44244394512C540115C014
:102FF0003801F2E06F0E711CF801A080B18026FF4D
:1030000003C0652D70E002C06FEF7FEFC5012C8714
:103010000E944D192C0183012C852F77222E17C079
:103020003801F2E06F0E711CF801A080B18026FF1C
:1030300003C0652D70E002C06FEF7FEFC5012C87E4
:103040000E9442192C012C852068222E830123FC2A
:103050001BC0832D90E048165906B0F4B60180E2FB
:1030600090E00E9458193A94F4CFF50127FC85911D
:1030700027FE81915F01B60190E00E94581931103E
:103080003A94F1E04F1A51084114510471F7E6C027
:10309000843611F0893639F5F80127FF07C06081C1
:1030A0007181828193810C5F1F4F08C060817181A3
:1030B000072E000C880B990B0E5F1F4F2F76722E78
:1030C00097FF09C090958095709561957F4F8F4FC0
:1030D0009F4F2068722E2AE030E0A4010E948819D8
:1030E000A82EA81844C0853729F42F7EB22E2AE0D6
:1030F00030E025C0F22FF97FBF2E8F36C1F018F4D3
:10310000883579F0B5C0803719F0883721F0B0C024
:103110002F2F2061B22EB4FE0DC08B2D8460B82EEF
:1031200009C024FF0AC09F2F9660B92E06C028E070
:1031300030E005C020E130E002C020E132E0F801DB
:10314000B7FE07C060817181828193810C5F1F4F40
:1031500006C06081718180E090E00E5F1F4FA40186
:103160000E948819A82EA818FB2DFF777F2E76FEC7
:103170000BC0372D3E7FA51450F474FE0AC072FCBC
:1031800008C0372D3E7E05C0BA2C372D03C0BA2C9F
:1031900001C0B52C34FF0DC0FE01EA0DF11D808188
:1031A000803311F4397E09C032FF06C0B394B39462
:1031B00004C0832F867809F0B39433FD13C030FF29
:1031C00006C0B31498F43A0C532C5B1810C0B31417
:1031D00070F4B60180E290E03C870E945819B394E5
:1031E0003C85F5CFB31418F43B1802C05A2C312C8F
:1031F00034FF12C0B60180E390E03C870E9458196A
:103200003C8532FF17C031FD03C088E790E002C063
:1032100088E590E0B6010CC0832F867859F031FF25
:1032200002C08BE201C080E237FD8DE2B60190E082
:103230000E945819A51438F4B60180E390E00E946A
:1032400058195A94F7CFAA94F401EA0DF11D808120
:10325000B60190E00E945819A110F5CF332009F46F
:1032600050CEB60180E290E00E9458193A94F6CF11
:10327000F6018681978102C08FEF9FEF2C96E2E1E5
:103280000C94341AFC010590615070400110D8F77D
:10329000809590958E0F9F1F0895FC01615070409E
:1032A00001900110D8F7809590958E0F9F1F08957B
:1032B0000F931F93CF93DF93182F092FEB018B816F
:1032C00081FD03C08FEF9FEF1EC082FF0FC02E81D4
:1032D0003F818C819D812817390774F4E881F98139
:1032E000CF01019699838883108306C0E885F9850C
:1032F000812F0995892B31F78E819F8101969F83BC
:103300008E83812F902FDF91CF911F910F91089580
:10331000FA01AA27283051F1203181F1E8946F9306
:103320006E7F6E5F7F4F8F4F9F4FAF4FB1E03ED0AC
:10333000B4E03CD0670F781F891F9A1FA11D680F4A
:10334000791F8A1F911DA11D6A0F711D811D911D7D
:10335000A11D20D009F468943F912AE0269F1124F2
:103360003019305D3193DEF6CF010895462F477056
:10337000405D4193B3E00FD0C9F7F6CF462F4F70B1
:10338000405D4A3318F0495D31FD4052419302D00F
:10339000A9F7EACFB4E0A6959795879577956795B5
:1033A000BA95C9F700976105710508959B01AC01B5
:1033B0000A2E06945795479537952795BA95C9F7DC
:1033C000620F731F841F951FA01D0895052E97FB84
:1033D0001EF400940E94FD1957FD07D00E944F1A59
:1033E00007FC03D04EF40C94FD1950954095309590
:1033F00021953F4F4F4F5F4F089590958095709561
:1034000061957F4F8F4F9F4F08950E94711AA59F1E
:10341000900DB49F900DA49F800D911D11240895CF
:10342000B7FF0C94051A0E94051A821B930B08958E
:103430002F923F924F925F926F927F928F929F92C4
:10344000AF92BF92CF92DF92EF92FF920F931F93B2
:10345000CF93DF93CDB7DEB7CA1BDB0B0FB6F89463
:10346000DEBF0FBECDBF09942A88398848885F84A3
:103470006E847D848C849B84AA84B984C884DF8014
:10348000EE80FD800C811B81AA81B981CE0FD11DF8
:103490000FB6F894DEBF0FBECDBFED010895A1E2D7
:1034A0001A2EAA1BBB1BFD010DC0AA1FBB1FEE1FBE
:1034B000FF1FA217B307E407F50720F0A21BB30B09
:1034C000E40BF50B661F771F881F991F1A9469F785
:1034D00060957095809590959B01AC01BD01CF01E1
:1034E0000895A29FB001B39FC001A39F700D811DDD
:1034F0001124911DB29F700D811D1124911D0895FD
:04350000F894FFCF6D
:1035040001010000002564003132330034353600F7
:1035140048656C6C6F20576F726C64210052454390
:1035240054414E474C452044454D4F00676C6364FD
:103534005F647261775F7265637400676C63645F74
:10354400647261775F726563745F746869636B004A
:10355400676C63645F647261775F726563745F73E1
:063564006861646F77004E
:00000001FF
